:020000040800F2
:10000000D0070020CD010008231B0008F5170008C9
:10001000211B0008D3020008812000080000000016
:10002000000000000000000000000000271B000886
:10003000D502000800000000251B00084D1B000829
:10004000E7010008E7010008E7010008E7010008F0
:10005000E7010008E7010008E7010008E7010008E0
:10006000E7010008E7010008E7010008E7010008D0
:10007000E7010008E7010008E7010008E7010008C0
:10008000E7010008E7010008E7010008E7010008B0
:10009000E7010008E7010008E7010008E7010008A0
:1000A000E7010008E7010008E7010008E701000890
:1000B000E7010008E7010008E7010008E701000880
:1000C000E7010008E7010008E7010008E701000870
:1000D000E7010008E701000875200008E7010008B3
:1000E000E7010008E7010008E7010008E701000850
:1000F000E7010008E7010008E7010008E701000840
:10010000E7010008E7010008E7010008E70100082F
:10011000E7010008E7010008B11B0008E70100083B
:10012000E7010008E7010008E7010008E70100080F
:1001300000F002F800F03AF80AA090E8000C8244BF
:100140008344AAF10107DA4501D100F02FF8AFF29C
:10015000090EBAE80F0013F0010F18BFFB1A43F0A5
:10016000010318475825000078250000103A24BFE5
:1001700078C878C1FAD8520724BF30C830C144BF0C
:1001800004680C607047000000230024002500264E
:10019000103A28BF78C1FBD8520728BF30C148BFEA
:1001A0000B6070471FB51FBD10B510BD00F058F8AB
:1001B0001146FFF7F7FF01F0DDFF00F076F803B41A
:1001C000FFF7F2FF03BC00F07DF80000094880470C
:1001D00009480047FEE7FEE7FEE7FEE7FEE7FEE729
:1001E000FEE7FEE7FEE7FEE704480549054A064B41
:1001F00070470000AF1B000831010008D00100204B
:10020000D0070020D0030020D00300204FF00002D0
:1002100000B5134694469646203922BFA0E80C50FC
:10022000A0E80C50B1F12001BFF4F7AF090728BFD7
:10023000A0E80C5048BF0CC05DF804EB890028BF53
:1002400040F8042B08BF704748BF20F8022B11F07C
:10025000804F18BF00F8012B7047704770477047F8
:10026000754600F02BF8AE4605006946534620F06F
:100270000700854618B020B5FFF7B6FFBDE820405F
:100280004FF000064FF000074FF000084FF0000B52
:1002900021F00701AC46ACE8C009ACE8C009ACE805
:1002A000C009ACE8C0098D46704710B50446AFF3ED
:1002B00000802046BDE81040FFF781BF004870472E
:1002C0006C01002001491820ABBEFEE726000200A9
:1002D0007047FEE7704772B6FEE710B590F8211040
:1002E0000022022905D00421816380F8202001200A
:1002F00010BD01680B6823F00E030B6001680B68EA
:1003000023F001030B6090F84030C46B012101FA27
:1003100003F3636080F8211080F82020104610BDA0
:100320002DE9F05F90F821100024022903D0042168
:100330008163012485E001680A6822F00E020A60E8
:1003400001680A6822F001020A603F4E3E4FB21572
:10035000DFF8F4C0DFF8F090DFF8ECA0DFF8E8B0E9
:10036000DFF8E4E00168783F13011502ACF1640C9A
:10037000A9F15009AAF13C0AABF1280BAEF1140E19
:100380004FF48018B14227D9B9420ED0614512D03E
:1003900049451DD0514518D0594518D0714501D156
:1003A000424615E0294EB14201D1012210E0274E0C
:1003B0001436B14201D110220AE0244E2836B1424F
:1003C00006D0224A3C32914201D11A4600E02A4628
:1003D0001E49091F0A602BE0B94213D0614517D0AE
:1003E000494522D051451DD059451DD0714501D1F7
:1003F00042461AE0B14202D14FF0807215E0134E2E
:10040000B14201D1012210E0104E1436B14201D1A7
:1004100010220AE00D4E2836B14206D00B4A3C327B
:10042000914201D11A4600E02A46074980394A60C4
:10043000012180F82110002180F82010416B01B1CA
:1004400088472046BDE8F09F800002400804024033
:100450002DE9F84FDFF8C8910024A9F1040B2346D9
:100460000F2709F1040AABF1040ED1E00125A540E4
:1004700006EA0502AA4276D1DFF8A8C14E68A6EBCB
:100480000C0866452BD00DDC032E34D005DC36B3CA
:10049000012E19D0022E2FD11BE0112E16D0122EB4
:1004A0002AD119E0B8F5881F19D006DCB8F5803FCD
:1004B00015D0B8F5801F1FD111E0B8F5001F0ED080
:1004C000B8F5041F18D10AE0CB6815E0CB681B1DF6
:1004D00012E0CB6808330FE0CB680C330CE08B687C
:1004E0002BB1012B4FF0080303D0456104E0042336
:1004F00002E0056100E00023FF2A01D8064601E082
:1005000000F104064FEA840501D9A5F12005D6F8CB
:10051000008007FA05FC28EA0C0803FA05F548EA0A
:100520000508C6F800804D68ED0070D53E4DAE69F7
:1005300046F00106AE61AD6924F0030605F0010541
:1005400000953A4D06EB050CDCF80850A607360F6F
:1005500007FA06F825EA0805DFF8D480404503D1FC
:100560004FF0000825E052E0DFF8C880404502D196
:100570004FF001081DE0DFF8C080404502D14FF088
:10058000020816E0DFF8B480404502D14FF00308BE
:100590000FE0DFF8AC80404502D14FF0040808E0DE
:1005A000DFF8A080404502D14FF0050801E04FF090
:1005B000060808FA06F848EA0508CCF808804D68ED
:1005C000D9F80060ED024D4601D5164300E0964390
:1005D0002E604D68DAF80060AD02554601D516432D
:1005E00000E096432E604D68DBF80060AD035D4689
:1005F00001D5164300E096432E604D68DEF800609A
:10060000ED03754601D5164300E096432E60641C49
:100610000A681646E2407FF429AFBDE8F88F000073
:1006200008040140000011100010024000000140C9
:1006300000080140000C014000100140001401407E
:1006400000180140001C014001488068704700000C
:100650003C000020024881680278114481607047A4
:100660003C000020074810B5016841F0100101600E
:10067000032000F075F80F2000F006F800F024F8D1
:10068000002010BD0020024070B50D4D04464FF40F
:100690007A712878B1FBF0F00A490968B1FBF0F0F3
:1006A00000F0DCFA48B9102C07D200222146501E77
:1006B00000F036F800206C6070BD012070BD0000B5
:1006C0003C000020480000200C4808B5816941F03A
:1006D00001018161816901F001010091C16941F06D
:1006E0008051C161C06900F08050009004484168A9
:1006F00021F0E06141F00071416008BD001002404E
:1007000000000140002809DB00F01F020121914098
:100710004009800000F1E020C0F80011704700009F
:10072000F0B40E4B1B680C46C3F30223C3F107055C
:10073000042D00D90425191D072901D2002300E04A
:10074000DB1E012606FA05F1491E214099409E4014
:10075000761E16403143F0BC01F093BC0CED00E076
:10076000064900F0070208684FF6FF03184040EA08
:100770000220034A10430860704700000CED00E0BF
:100780000000FA052DE9F0470F46050061D0434E01
:10079000306800F00700B84209D2306820F0070046
:1007A00038433060306800F00700B84251D1286803
:1007B0003B4C810712D5400703D5606840F4E060E8
:1007C00060602878000703D5606840F4605060607E
:1007D0006068A96820F0F000084360602878C007CE
:1007E00028D06868012810D02168022810D0890715
:1007F00000292EDA616821F0030101436160FFF7EF
:1008000023FF804641F288390DE021688903EFE734
:100810008901EDE7FFF718FFA0EB0801494502D970
:100820000320BDE8F0876068696800F00C00B0EB59
:10083000810FEFD1306800F00700B8420BD9306863
:1008400020F0070038433060306800F00700B842FD
:1008500001D00120E5E72878400705D56068E96800
:1008600020F4E060084360602878000706D56068DF
:10087000296920F4605040EAC100606000F038F857
:100880006168084AC1F30311515CC8400649086019
:1008900006480068FFF7F8FE0020C2E7002002408B
:1008A00000100240A226000848000020400000205E
:1008B0000448054900684968044AC1F30221515CB3
:1008C000C84070474800002000100240B2260008CF
:1008D0000448054900684968044AC1F3C221515CD3
:1008E000C84070474800002000100240B2260008AF
:1008F0000E4A51680E4801F00C03042B11D0082B4E
:100900000FD10C48C1F38343C903C05C0AD55168B9
:10091000084AC1F34041921E515C054A5043B0FB66
:10092000F1F070470449484370470000001002404E
:1009300000127A009226000800093D002DE9F84FC8
:10094000040070D02078C04DC00749D06868C0F35B
:100950008100012807D06868C0F38100022809D10E
:100960006868C00306D52868800339D56068002808
:10097000E7D035E06068B0F5803F0BD010B1B0F53E
:10098000A02F11D0286820F480302860286820F437
:10099000802002E0286840F480302860606890B1D0
:1009A000FFF752FE06460AE0286840F480202860DF
:1009B000F0E700BFFFF748FE801B642873D8286863
:1009C0008003F7D50CE0FFF73FFE064605E000BFC9
:1009D000FFF73AFE801B6428F0D828688003F7D41C
:1009E00020789A4E80074FF001094FF0000839D562
:1009F000686810F00C0F07D06868C0F38100022807
:100A000009D16868C00306D42868800714D5206916
:100A1000012808D110E02069B0B1C6F80090FFF7B6
:100A200013FE074605E00AE1FFF70EFEC01B022891
:100A3000C4D828688007F7D52868616920F0F800D5
:100A400040EAC10028600DE0C6F80080FFF7FCFD19
:100A5000074604E0FFF7F8FDC01B022823D82868EA
:100A60008007F7D4207800072CD57948A169D9B13F
:100A7000C0F80090FFF7E8FD074604E0FFF7E4FD4B
:100A8000C01B02280FD8686A8007F7D571484FF459
:100A9000FA510068B0FBF1F0009000BF0098411ED1
:100AA0000091FAD20EE080E0C0F80080FFF7CCFDA4
:100AB000074604E0FFF7C8FDC01B022875D8686A26
:100AC0008007F7D42078400760D5E8690027C00088
:100AD00008D4E86940F08050E861E869012700F037
:100AE000805000905C480168C90513D401688346B2
:100AF00041F480710160FFF7A7FD824606E000BF68
:100B0000FFF7A2FDA0EB0A0064284ED8DBF8000036
:100B1000C005F5D5E06801280AD008B1052813D032
:100B2000286A20F001002862286A20F0040002E010
:100B3000286A40F001002862E06841F2883B98B1E1
:100B4000FFF782FD82460BE0286A40F0040028622D
:100B5000EEE700BFFFF778FDA0EB0A0159455AD830
:100B6000286A8007F6D50CE0FFF76EFD824605E0A7
:100B7000FFF76AFDA0EB0A0159454CD8286A8007A7
:100B8000F6D41FB1E86920F08050E861E06988B3CD
:100B90006968C1F38101022944D00228C6F8608047
:100BA00004D0FFF751FD044638E034E0FFF74CFD78
:100BB000074604E0FFF748FDC01B02282BD8286831
:100BC0008001F7D4206AB0F5803F05D16868A1683C
:100BD00020F4003008436860D4E9080108436968DC
:100BE00021F4741108436860C6F86090FFF72CFD8B
:100BF000044606E025E000BFFFF726FD001B0228A3
:100C000009D828688001F7D51BE000BFFFF71CFD5D
:100C1000001B022802D90320BDE8F88F2868800154
:100C2000F4D40EE00128F7D06868226A00F480311D
:100C3000914204D1616A00F47010884201D0012011
:100C4000EAE70020E8E7000000100240000042420E
:100C500080044242480000200070004010B5401E51
:100C6000B0F1807F01D3012010BD4FF0E02460611E
:100C70000F21601701F005FA0020A0610720206114
:100C8000002010BD7047704770B590F83C20012AD5
:100C90002CD0012480F83C40022280F83D200368DB
:100CA0005A689D6822F070060A6832435A60104BF9
:100CB00002689A420ED00F4B9A420BD0B2F1804F8D
:100CC00008D00D4B9A4205D00C4B9A4202D00C4BE7
:100CD0009A4204D1496825F080031943916080F855
:100CE0003D40002180F83C10084670BD022070BDD8
:100CF000002C014000340140000400400008004086
:100D0000000C004010B5040003D094F83D0010B171
:100D100007E0012010BD002084F83C00204600F0D0
:100D20001FF8022084F83D00211D206800F046FFD6
:100D3000012084F8460084F83E0084F83F0084F8DF
:100D4000400084F8410084F8420084F8430084F8AD
:100D5000440084F8450084F83D00002010BD0000E8
:100D600008B501681648B1F1804F0BD0154A914281
:100D700010D1C16941F00401C161C06900F00400F3
:100D8000009008BDC16941F00101C161C06900F076
:100D90000100F5E70C4A9142F3D1C16941F010011D
:100DA000C161C069002200F01000009004213620CB
:100DB000FFF7B6FCBDE808403620FFF7A3BC0000F3
:100DC00000100240000800400010004090F83D1064
:100DD000012901D001207047022180F83D100168EF
:100DE000CA6842F00102CA6000680E4988420ED00B
:100DF0000D4988420BD0B0F1804F08D00B49884292
:100E000005D00B49884202D00A49884204D1816842
:100E100001F00701062903D0016841F001010160DA
:100E200000207047002C01400034014000040040C5
:100E300000080040000C004070B5044690F83C00EB
:100E40000025012817D0012684F83C60022084F890
:100E50003D002068826822F0770222F47F4282609F
:100E60000868502838D00DDC20284FD005DC90B31E
:100E7000102811D14AE0022070BD302846D0402809
:100E80000AD13BE060282FD070280DD0B0F5805FEC
:100E900003D0B0F5005F12D0012584F83D6000203A
:100EA00084F83C00284670BDCB68D1E90121206858
:100EB00000F0DFFE2068816841F0770109E0CB682F
:100EC000D1E90121206800F0D4FE2068816841F456
:100ED00080418160E1E719E0CA684968206800F054
:100EE0009DFF5021206806E0CA684968206800F02C
:100EF000A6FF6021206800F0C6FECEE7CA684968F8
:100F0000206800F08BFF40212068F4E7226801464A
:100F10001046F0E770472DE9F04104460068C668C6
:100F200005694FF00007A90713D5B10711D5F91EC0
:100F3000016101202077206880698007204602D067
:100F4000FFF7E8FF04E000F0B9F8204600F04BF9A5
:100F50002777680716D5700714D521686FF004004D
:100F60000861022020772068806910F4407F2046C5
:100F700002D0FFF7CFFF04E000F0A0F8204600F019
:100F800032F92777280715D5300713D521686FF078
:100F900008000861042020772068C0698007204687
:100FA00002D0FFF7B7FF04E000F088F8204600F019
:100FB0001AF92777E80616D5F00614D521686FF0E0
:100FC00010000861082020772068C06910F4407F75
:100FD000204602D0FFF79EFF04E000F06FF82046A5
:100FE00000F001F92777E80708D0F00706D021685C
:100FF0006FF001000861204600F08EF9280608D540
:10100000300606D521686FF0800008612046FFF7A2
:1010100039FE680608D5700606D521686FF04000D5
:101020000861204600F0EEF9A8060AD5B00608D5FA
:1010300021686FF0200008612046BDE8F041FFF70D
:1010400022BEBDE8F081000000B585B0002100910E
:10105000019102910391026814480221B2F1804F7C
:1010600014D0134B9A420FD1826942F00802826178
:101070008069039100F008000490C020CDE90001D0
:1010800069460C48FFF7E4F905B000BD826942F0FB
:10109000040282618069039100F00400049003203F
:1010A000CDE9000169460448ECE700000010024069
:1010B00000080040000C014000080140704770B576
:1010C000044690F83C0000260D4601280FD0012070
:1010D00084F83C006AB1042A1DD0082A2FD00C2ABB
:1010E0003FD00126002084F83C00304670BD02202D
:1010F00070BD206800F0D0FD2068816941F00801D2
:1011000081612068816921F0040181612068816921
:101110002A69114311E0206800F0EEFD2068816922
:1011200041F4006181612068816921F480618161FD
:10113000206881692A6941EA02218161D2E7206839
:1011400000F010FE2068C16941F00801C16120680B
:10115000C16921F00401C1612068C1692A69114394
:1011600011E0206800F032FE2068C16941F400619E
:10117000C1612068C16921F48061C1612068C169D1
:101180002A6941EA0221C161ACE710B5040003D02D
:1011900094F83D0010B107E0012010BD002084F854
:1011A0003C00204600F01EF8022084F83D00211D7E
:1011B000206800F003FD012084F8460084F83E001A
:1011C00084F83F0084F8400084F8410084F842002D
:1011D00084F8430084F8440084F8450084F83D0016
:1011E000002010BD7047704710B50446022249B177
:1011F00004290ED0082913D094F84100012816D0F4
:10120000012010BD94F83E000128F9D184F83E2059
:101210000FE094F83F000128F2D184F83F2008E065
:1012200094F840000128EBD184F8402001E084F8D4
:1012300041200122206800F00FFD13492068134A65
:10124000884201D0904203D1436C43F4004343648D
:10125000206888420DD090420BD0B0F1804F08D06A
:101260000B49884205D00B49884202D00A4988427E
:1012700004D1816801F00701062903D0016841F01B
:1012800001010160002010BD002C0140003401402C
:101290000004004000080040000C004030B5044647
:1012A0000D460068002200F0D7FC194B41F21111E5
:1012B00020688A10984202D0164B984209D1036ADE
:1012C0000B4206D1036A134203D1436C23F400435B
:1012D00043642068036A0B4206D1016A114203D1BC
:1012E000016821F00101016001203DB1042D08D009
:1012F000082D09D084F84100002030BD84F83E005C
:10130000FAE784F83F00F7E784F84000F4E70000CC
:10131000002C0140003401402DE9F04100683449BF
:10132000884262D172B63348006862B6324CE669D0
:101330002662A769E76100F0C9FF054610F0FF4F7C
:10134000A0612CD00121384601F055F9294601F061
:10135000A1F8314600F036FFE16800F0CFFF064605
:101360002946606800F0CAFF80463946284601F0E9
:101370009BF8A16800F0C2FF414600F023FF314610
:1013800000F020FF0146606A00F01CFF1B4960620C
:10139000884202DC1A49884205D9616203E00020D4
:1013A0006062E0612062206800F074FF0546606AB8
:1013B00000F070FF01466A18291A4FF4487358422A
:1013C0009A4201DD1A4602E0824200DA0246994260
:1013D00001DD194602E0814200DA0146C4E9042138
:1013E000BDE8F041104600F006BABDE8F08100000B
:1013F0000010004010000020140000200000704287
:10140000000070C27047704770470000F8B501686F
:1014100004460868CA684B6910F00F0F4FF00005CA
:1014200059D003F0010602F49077374365D0C10725
:1014300005D0D10503D5616C41F00101616441071C
:1014400005D5D90703D0616C41F0020161648107C1
:1014500005D5D90703D0616C41F00401616401072F
:1014600007D502F02001314303D0616C41F008013F
:101470006164616C00293AD0800604D5900602D5DB
:10148000204600F01DFD20684069616CC0F38010AB
:10149000090700D460B3204600F0EBFC20684069E7
:1014A000400621D52068143050E8001F21F040018B
:1014B00040E80012002AF5D1E06BA8B16D49416304
:1014C000E06BFEF72DFF002811D0E06B416B01B0FF
:1014D000BDE8F040084783060FD593060DD520469A
:1014E000BDE8F84000F0ECBC2046FFF78DFFF8BDEA
:1014F0002046FFF789FF6564F8BD266B2023012E87
:101500007CD1C6067AD5D60678D50868486800909A
:1015100048694FF00206400640D5E16B0868406814
:101520000004000CE8D0A28D8242E5D9E0858869EC
:1015300020282DD020680C3050E8001F21F4807145
:1015400040E80012002AF5D12068143050E8001F4E
:1015500021F0010140E80012002AF5D12068143082
:1015600050E8001F21F0400140E80012002AF5D1A8
:1015700084F84230256320680C3050E8001F21F0C9
:10158000100140E80012002AF5D1E06BFEF7A5FE3D
:101590006663A08DE18D401A81B22AE0A08DE18DB5
:1015A000401A81B2E08D0028A6D00029A4D022687C
:1015B0000C3252E8000F20F4907042E80007002F30
:1015C000F5D12068143050E8002F22F0010240E8E5
:1015D0000027002FF5D184F84230256320680C30B5
:1015E00050E8002F22F0100240E80023002BF5D134
:1015F00066632046FFF707FFF8BDFFE705062BD51A
:10160000150629D594F841002128F5D1A068B0F538
:10161000805F01D12069B0B1206A411C216221683C
:1016200000784860E08C401E0004000CE084E3D1A8
:101630002068C16821F08001C1602068C16841F064
:101640004001C160D8E7206A0088C0F30800486004
:10165000206A801C2062E5E74006CDD55006CBD538
:10166000CA68204622F04002CA6084F8413000F087
:10167000C0F8C1E7631E000870B5040004D094F8F8
:101680004100002510B106E0012070BD84F84050F3
:10169000204600F023F8242084F841002068C16827
:1016A00021F40051C160204600F06CFC2068016903
:1016B00021F4904101612068416921F02A014161D2
:1016C0002068C16841F40051C1606564202084F83D
:1016D000410084F842006563002070BD30B585B0DC
:1016E00000240094019402940394006818498842ED
:1016F0002BD11848C16941F40031C161C16901F4BD
:1017000000310491816941F0040181618069124DC9
:1017100000F00400049004200090022001900320B7
:10172000039069462846FEF793FE0820CDE90004A1
:10173000694628460294FEF78BFE002203212620EC
:10174000FEF7EEFF2620FEF7DDFF05B030BD0000FE
:1017500000440040001002400008014090F8423070
:10176000202B01D00220704721B11AB1002303635E
:1017700000F064BC012070470F4910B5884219D1B0
:101780000E480178752908D18178022905D1417860
:10179000001F4170017000F085FC08490222891E7B
:1017A000054800F00DF8BDE8104003220349024847
:1017B000FFF7D4BF10BD0000240100200C00002062
:1017C00090F84130202B01D00220704779B172B1DE
:1017D00001628284C28400214164212180F8411089
:1017E0000068C16841F08001C1600020704701209D
:1017F00070477047FEE710B50C4600F005F820462C
:10180000BDE8104000F03EB870B54FF448711A4D75
:101810001A4C884201DD216007E01949884201DA4B
:1018200021600DE02060002809DD4FF00001124822
:10183000FFF734FD29682068886304210DE011DA80
:1018400020684FF00401C0F1000020600A48FFF753
:1018500025FD2968206848630021BDE870400648DE
:10186000FFF7C2BC00210448FFF718FDBDE8704037
:1018700004210148FFF712BD4C00002000000020A9
:10188000E0FCFFFF70B54FF448711A4D1A4C8842C6
:1018900001DD616007E01949884201DA61600DE00D
:1018A0006060002809DD4FF000011248FFF7F6FCE8
:1018B00029686068886304210DE011DA60684FF0E0
:1018C0000401C0F1000060600A48FFF7E7FC2968E6
:1018D000606848630021BDE870400648FFF784BC9B
:1018E00000210448FFF7DAFCBDE8704004210148FC
:1018F000FFF7D4BC9400002000000020E0FCFFFFB4
:10190000114808B5816941F010018161816901F0D8
:1019100010010091816941F020018161816901F02C
:1019200020010091816941F004018161816901F028
:1019300004010091816941F008018161806900F032
:101940000800009008BD00000010024010B58EB0E5
:1019500000240794089409940A940B941C21684667
:101960000C94FEF753FC23484FF08041016040F295
:10197000CF21C0E9011440F2E731C0E9031480210E
:101980008161FFF7BFF908B1FEF7A5FC4FF4805065
:10199000079007A91748FFF74FFA08B1FEF79BFC1D
:1019A0001448FFF7F2FB08B1FEF795FC0B940BA966
:1019B00010480C94FFF768F908B1FEF78CFC602022
:1019C000CDE900040294002269460A480494FFF716
:1019D00076FB08B1FEF77FFC042269460548FFF755
:1019E0006EFB08B1FEF777FC0248FFF72DFB0EB047
:1019F00010BD00004C00002010B58EB000240794EC
:101A0000089409940A940B941C2168460C94FEF7E0
:101A1000FDFB23482149016040F2CF21C0E90114B8
:101A200040F2E731C0E9031480218161FFF76AF9D0
:101A300008B1FEF750FC4FF48050079007A91848F2
:101A4000FFF7FAF908B1FEF746FC1548FFF79DFBD2
:101A500008B1FEF740FC0B940BA911480C94FFF75A
:101A600013F908B1FEF737FC6020CDE900040294B9
:101A7000002269460A480494FFF721FB08B1FEF7EB
:101A80002AFC042269460648FFF719FB08B1FEF755
:101A900022FC0348FFF7D8FA0EB010BD0008004042
:101AA000940000201CB500240E4800940C490194B9
:101AB000016041F61F41C0E90114C7218461C16082
:101AC000FFF720F908B1FEF706FC009469460548C7
:101AD0000194FFF7D9F8002801D0FEF7FCFB1CBDEC
:101AE00000100040DC0000200C4810B50A490160DD
:101AF0004FF416514160002181600C22C160C0E9A1
:101B000004128161C161FFF7B7FD002803D0BDE871
:101B10001040FEF7E0BB10BD00440040240100204F
:101B2000FEE7FEE77047704710B5022205490648F8
:101B3000FFF746FE03490322BDE81040891C024816
:101B4000FFF70CBE0A00002024010020FEF782BD32
:101B500030B58FB028216846FEF758FB14210AA83B
:101B6000FEF754FB01210804CDE900100024029483
:101B700002250491CDE907504FF4E0100990684622
:101B8000FEF7DCFE08B172B6FEE70F20CDE90A05CC
:101B90004FF48060CDE90C4002210AA80E94FEF7B4
:101BA000F1FD002801D072B6FEE70FB030BD7047DE
:101BB0000148FFF7B0B90000DC000020F0B5026872
:101BC000204C214D214E224F224B4FF0804CA04201
:101BD00009D0984207D0604505D0A84203D0B04252
:101BE00001D0B84204D122F0700E4A6842EA0E02D7
:101BF000A04209D0984207D0604505D0A84203D042
:101C0000B04201D0B84203D122F44075CA682A43D9
:101C10004D6922F080022A4302608A68C2620A6823
:101C20008262A04201D0984201D109690163012179
:101C300041610169C90703D0016921F00101016116
:101C4000F0BD0000002C01400004004000080040EE
:101C5000000C00400034014010B501F01F030121C9
:101C6000046A99408C430462016A9A4011430162FC
:101C700010BD10B5846842EA032224F47F440A436D
:101C80002243826010BD826822F070020A4342F053
:101C90000701816070470000F0B5036A026A22F014
:101CA0000102026242688469124E24F073050C68D6
:101CB0002C4323F002058B682B430D4DA84201D025
:101CC000B04205D123F00807CB683B4323F004035F
:101CD000A84201D0B04205D14D6922F440721543AB
:101CE0008A692A4342608461496841630362F0BDA6
:101CF000002C014000340140F0B5026A036A23F071
:101D000010030362436884690D6824F4E64444EADE
:101D100005248D6822F0200242EA05120F4D104E74
:101D2000A84201D0B04206D1CF6822F0800242EA38
:101D3000071222F04002A84201D0B04207D14D69FB
:101D400023F4406343EA85038D6943EA85034360D6
:101D50008461496881630262F0BD0000002C01408B
:101D600000340140F0B5026A036A23F48073036211
:101D70004368C46922F4007224F073050C68124EA3
:101D80002C438D6842EA05220E4DA84201D0B04294
:101D900006D1CF6822F4006242EA072222F4806270
:101DA000A84201D0B04207D14D6923F4405343EA21
:101DB00005138D6943EA05134360C4614968C16333
:101DC0000262F0BD002C01400034014030B5046ACD
:101DD000026A22F4805202624268C3690D6823F4E9
:101DE000E64343EA05238D6824F4005444EA0534AD
:101DF000084DA84202D0084DA84204D14D6922F4F2
:101E0000804242EA85124260C3614968016404620B
:101E100030BD0000002C01400034014010B5036AC1
:101E2000046A24F001040462846924F0F00444EAA2
:101E3000021423F00A020A438461026210BD10B545
:101E4000036A046A24F010040462846923F0A00386
:101E500024F4704444EA023243EA011182610162CF
:101E600010BD10B5406A0021C185C184FFF7CCFACE
:101E700010BD01680C3151E8002F22F4907241E846
:101E80000023002BF5D10168143151E8002F22F016
:101E9000010241E80023002BF5D1016B012909D192
:101EA00001680C3151E8002F22F0100241E80023B4
:101EB000002BF5D1202180F84210002101637047EA
:101EC00008B590F84210222901D0022008BD82688E
:101ED0004FF480539A4201D1016921B1816A9A423B
:101EE0001BD04AB10AE00268816A5268C2F3080254
:101EF0000A80816A891C08E0026972B1026852682E
:101F000002F07F020A70816A491C8162C18D491EFC
:101F10000904090CC18503D01BE002685268F1E78F
:101F20000168CA6822F02002CA600168CA6822F407
:101F30008072CA6001684A6922F001024A61202168
:101F400080F8421000214163026B012A03D0FFF7A1
:101F500013FC002008BD016301680C3151E8002F1B
:101F600022F0100241E80023002BF5D101680A6835
:101F7000D20602D50A6849680091818DFFF743FABD
:101F8000E7E7000070B5044600680169E26821F4E3
:101F90004051114301612169A06808436169084308
:101FA0002168CA6841F20C639A430243CA60206800
:101FB0004169A26921F44071114341611E492068C1
:101FC000884202D1FEF784FC01E0FEF771FC00EBD1
:101FD000C00101EB0012606864218000B2FBF0F3E5
:101FE000B3FBF1F36FF018067343B2FBF0F5B2FBED
:101FF000F0F605EB8305322303EB0515B5FBF1F590
:10200000B6FBF1F605F0F00505EB0615B2FBF0F6B0
:10201000B2FBF0F0B0FBF1F06FF01802504306EBAA
:10202000800003EB0010B0FBF1F0216800F00F001E
:102030002844886070BD00000038014081628285BC
:10204000C28500214164222180F84210016921B13A
:102050000168CA6842F48072CA6001684A6942F045
:1020600001024A610068C16841F02001C16000209E
:10207000704700000148FFF7C9B9000024010020A3
:10208000FEE70907090E002804DB00F1E02080F8D4
:102090000014704700F00F0000F1E02080F8141DDC
:1020A00070470000F0B5314C00206378672B33D0C7
:1020B00012DC3F2B3AD008DC032B37D0072B33D070
:1020C0000F2B2FD01F2B33D12EE0472B26D04F2B99
:1020D00026D0632B2CD144E0A3F171010F2927D224
:1020E000DFE801F01426172626263F0E1126260BC0
:1020F00026083F006FF0090033E06FF0080030E081
:102100006FF004002DE06FF003002AE06FF0010093
:1021100027E04FF0FF3024E0012022E0022020E001
:1021200004201EE005201CE009201AE00A2018E027
:1021300000220F4E114603F07F031046012700BF17
:1021400007FA00F51D4203D156F82050491C2A44D5
:10215000401C0728F4DB002019B1062901DA92FBA4
:10216000F1F000EB8000C000A060F0BD080000208E
:1021700074260008FEF776FAFFF7EAFCFFF7C0FBCB
:10218000FFF7E4FBFFF738FCFFF7AEFCFFF78AFC34
:10219000FFF7CAFC064900200860064908600649A6
:1021A0000860064908600648FEF710FEFEE70000DA
:1021B0002C000020300000203400002038000020D7
:1021C000DC00002090EA010F48BF81F0004100F1DF
:1021D0007281421A3CBF801A89184FEAD0524FF0E0
:1021E0007F4C1CEA410FA2EBD15318BF9CEA026F4F
:1021F00000F03B804FF0004C4CEA00204CEA0121FB
:1022000021FA03FC10EB0C0C1ED202F1FF325FEA44
:102210001C2040EBC25038BF70471CF07F0F4FEAC4
:10222000400C18BFBCF17F4F38BF7047C3F120038B
:10223000994008BF20F00100BCF17F4F38BF7047C4
:10224000A0F1C04000F021B94FEA3C00000A40EB89
:10225000C25028BF1CF0FF0F4FEA400CE6D018BF59
:10226000BCF17F4F38BF7047EAE79CEA026F05D0A8
:1022700010EA5C0F08BF00F00040704710B500F096
:10228000BEF800BF64FBBE3E014800F082B900BF4B
:102290000000C07F41000B0ED3F19E0208D950F41C
:1022A00000034FEA032323FA02F048BF404270477D
:1022B00010B500F0A4F800BF4992248000207047B8
:1022C0006FF0004282EA20007047000010F00041E9
:1022D00048BF4042B0FA80F310FA03F2C3F19D0305
:1022E0000BD051EAC35101EB1220530638BF70479F
:1022F00000F1010008BF20F0010070474FF47F0C8F
:102300001CEAD0121EBF1CEAD11392EA0C0F93EA0A
:102310000C0F00F0478090EA010F48BF42F4807232
:102320004FF0004C4CEA00204CEA012102EB030282
:10233000A0FB0113A2F50002002918BF43F001031E
:102340005B0028BF4FEA330342EB22425FEA132CC3
:102350004CEBC2502EBFBCEB436FB2F57C0F704705
:102360004FEA036CBCF1004F08BF20F00100B2F54A
:102370007C0F38BF70470BD582F0FF0212F5803F0B
:10238000C8BF704700F1C040D8BF00F000407047A0
:1023900000F5000C5FEA4C0C48BF7047B0F1C0403C
:1023A00000F073B890EA010F0CEAD11348BF42F471
:1023B0008072624538BF634504D280EA010000F0B4
:1023C0000040704710B500F01AF800BF8900013EC8
:1023D00000F007B800F009B85FEA410C5FEA1C6C36
:1023E00008D080EA010000F050B85FEA400C5FEAD4
:1023F0001C6CF6D14FF00040A0F5800070470EF144
:10240000020E2EF0030E5EF8044B244204D44FEA71
:102410004102B2F17F4F11D84FEA4003B3F17F4F31
:102420000CD80ED14FEAD07CB2F17F4F0CEB4C0CA4
:102430000CF1020C08BF4CEBD17C04E04FF0080C0F
:1024400001E04FEAD17C0CEB4C0324FA03F404F0D6
:102450000704B4F1040C06D20EEB840CBDE8104066
:102460004CF0010C6047DFE80CF0070802024FF067
:102470000040A0F5800010BD0846420018BFD2F110
:10248000807288BF00F0004010BDFF2141EAD050AB
:10249000C005704780F0004090EA010F7FF599AECB
:1024A00081F0004100F007B890EA010F48BF81F0C9
:1024B00000413FF58EAE421A04D882F00042A0EBF4
:1024C000020011444FEAD0524FF07F4C1CEA410FFA
:1024D000A2EBD15318BF9CEA026F4AD04FF0004CD8
:1024E0004CEA00204CEA012121FA03FCB0EB0C0C71
:1024F0000FD412F0FE0F36D05FEA4C001DD500124B
:1025000040EBC25038BF70471CF03F0F18BF7047F8
:102510000BE0A2F101025FEA1C2040EBC25038BF81
:1025200070471CF07F0F18BF7047C3F1200399401C
:1025300014BF401E20F00100704780084FEA1223AC
:1025400008BF7047B0FA80FCA2EB0C02CCF1280C5B
:1025500060FA0CF093EA122F04BF00EBC2507047F0
:102560004FEAC3707047130A5FEADC1008BF704778
:10257000F6E79CEA026F04D010EA5C0F08BF002067
:10258000704710B5FFF73BFF40DFF63E81F000409B
:1025900070470CF00F03092B08BF082000F0518092
:1025A0000A2B0BD0082B18BF704708BF1CF0400F38
:1025B0000AD04FF000004FF0000170471CF0400FB0
:1025C00018BF4FF0004070471CF0100F08D020F0EB
:1025D000704300F07F4242EAD3014FEA43707047F4
:1025E00000F0604021F07F4242EA000201F07F40AB
:1025F00040EA727070474FF0FF0212EAD0521CBFDF
:1026000092F0FF038B42C2BFD14200EBC150704732
:10261000002A0AD0002B0BD0002900F00040A4BFF4
:1026200040F0FE4040F40000704700F0004070476A
:1026300043024FF00B0C18BF4CF0806C7FF424AEBB
:1026400070471CF4801F11D01CF4E02F03D06FEAF8
:10265000CC31490070474FF04050EFF3008222F038
:10266000704242EA000282F3008870474FF0000097
:1026700070470000F6FFFFFFFAFFFFFFFDFFFFFFBF
:102680000000000003000000060000000A00000037
:10269000010202030405060708090A0B0C0D0E0FC0
:1026A00010100000000000000000010203040607F3
:1026B000080900000000010203040000DC260008F5
:1026C000000000204C0000006C01000828270008D2
:1026D0004C00002084070000880100080000000072
:1026E0000000000000005701000000000000000092
:1026F0000000F04200000000CDCC4C3E0AD7A33CC5
:1027000000000000000000000000000000000000C9
:1027100000000000000000000100000010000000A8
:082720000000000000127A0025
:0400000508000131BD
:00000001FF
